{
  "_format": "hh-sol-artifact-1",
  "contractName": "AlienPoll",
  "sourceName": "contracts/AlienPoll.sol",
  "abi": [
    {
      "inputs": [],
      "stateMutability": "payable",
      "type": "constructor"
    },
    {
      "anonymous": false,
      "inputs": [
        {
          "indexed": true,
          "internalType": "address",
          "name": "from",
          "type": "address"
        },
        {
          "indexed": false,
          "internalType": "uint256",
          "name": "timestamp",
          "type": "uint256"
        },
        {
          "indexed": false,
          "internalType": "string",
          "name": "message",
          "type": "string"
        },
        {
          "indexed": false,
          "internalType": "string",
          "name": "X",
          "type": "string"
        }
      ],
      "name": "VoteMessage",
      "type": "event"
    },
    {
      "inputs": [
        {
          "internalType": "uint8",
          "name": "choice",
          "type": "uint8"
        }
      ],
      "name": "bonus",
      "outputs": [],
      "stateMutability": "nonpayable",
      "type": "function"
    },
    {
      "inputs": [
        {
          "internalType": "string",
          "name": "_message",
          "type": "string"
        }
      ],
      "name": "faceInc",
      "outputs": [],
      "stateMutability": "nonpayable",
      "type": "function"
    },
    {
      "inputs": [],
      "name": "getAllMess",
      "outputs": [
        {
          "components": [
            {
              "internalType": "address",
              "name": "waver",
              "type": "address"
            },
            {
              "internalType": "string",
              "name": "message",
              "type": "string"
            },
            {
              "internalType": "uint256",
              "name": "timestamp",
              "type": "uint256"
            },
            {
              "internalType": "string",
              "name": "who",
              "type": "string"
            }
          ],
          "internalType": "struct AlienPoll.Mess[]",
          "name": "",
          "type": "tuple[]"
        }
      ],
      "stateMutability": "view",
      "type": "function"
    },
    {
      "inputs": [],
      "name": "getFaceCount",
      "outputs": [
        {
          "internalType": "uint256",
          "name": "",
          "type": "uint256"
        }
      ],
      "stateMutability": "view",
      "type": "function"
    },
    {
      "inputs": [],
      "name": "getShipCount",
      "outputs": [
        {
          "internalType": "uint256",
          "name": "",
          "type": "uint256"
        }
      ],
      "stateMutability": "view",
      "type": "function"
    },
    {
      "inputs": [],
      "name": "getTotalWaves",
      "outputs": [
        {
          "internalType": "uint256",
          "name": "",
          "type": "uint256"
        }
      ],
      "stateMutability": "view",
      "type": "function"
    },
    {
      "inputs": [
        {
          "internalType": "address",
          "name": "",
          "type": "address"
        }
      ],
      "name": "lastWavedAt",
      "outputs": [
        {
          "internalType": "uint256",
          "name": "",
          "type": "uint256"
        }
      ],
      "stateMutability": "view",
      "type": "function"
    },
    {
      "inputs": [
        {
          "internalType": "string",
          "name": "_message",
          "type": "string"
        }
      ],
      "name": "shipInc",
      "outputs": [],
      "stateMutability": "nonpayable",
      "type": "function"
    }
  ],
  "bytecode": "0x60806040526200003360405180606001604052806023815260200162001ae1602391396200005b60201b62000b631760201c565b60644442620000439190620001a8565b6200004f919062000245565b600381905550620002ec565b620000fb8160405160240162000072919062000168565b6040516020818303038152906040527f41304fac000000000000000000000000000000000000000000000000000000007bffffffffffffffffffffffffffffffffffffffffffffffffffffffff19166020820180517bffffffffffffffffffffffffffffffffffffffffffffffffffffffff8381831617835250505050620000fe60201b60201c565b50565b60008151905060006a636f6e736f6c652e6c6f679050602083016000808483855afa5050505050565b600062000134826200018c565b62000140818562000197565b9350620001528185602086016200020f565b6200015d81620002db565b840191505092915050565b6000602082019050818103600083015262000184818462000127565b905092915050565b600081519050919050565b600082825260208201905092915050565b6000620001b58262000205565b9150620001c28362000205565b9250827fffffffffffffffffffffffffffffffffffffffffffffffffffffffffffffffff03821115620001fa57620001f96200027d565b5b828201905092915050565b6000819050919050565b60005b838110156200022f57808201518184015260208101905062000212565b838111156200023f576000848401525b50505050565b6000620002528262000205565b91506200025f8362000205565b925082620002725762000271620002ac565b5b828206905092915050565b7f4e487b7100000000000000000000000000000000000000000000000000000000600052601160045260246000fd5b7f4e487b7100000000000000000000000000000000000000000000000000000000600052601260045260246000fd5b6000601f19601f8301169050919050565b6117e580620002fc6000396000f3fe608060405234801561001057600080fd5b50600436106100885760003560e01c8063a42a46631161005b578063a42a466314610103578063a51897ee14610133578063c1c22c7f1461014f578063f5d134621461016d57610088565b80631704c2711461008d57806369e18f93146100ab5780637e9a60bf146100c75780639a2cdc08146100e5575b600080fd5b610095610189565b6040516100a291906113ab565b60405180910390f35b6100c560048036038101906100c09190610ebb565b6101d4565b005b6100cf61047b565b6040516100dc91906113ab565b60405180910390f35b6100ed6104c6565b6040516100fa91906113ab565b60405180910390f35b61011d60048036038101906101189190610e92565b610511565b60405161012a91906113ab565b60405180910390f35b61014d60048036038101906101489190610ebb565b610529565b005b6101576107cf565b60405161016491906112a7565b60405180910390f35b61018760048036038101906101829190610efc565b6109b2565b005b60006101cc6040518060400160405280601d81526020017f256420656e74697469657320686176652063686f73656e207368697021000000815250600254610bfc565b600254905090565b426078600560003373ffffffffffffffffffffffffffffffffffffffff1673ffffffffffffffffffffffffffffffffffffffff16815260200190815260200160002054610221919061151e565b10610261576040517f08c379a00000000000000000000000000000000000000000000000000000000081526004016102589061134b565b60405180910390fd5b42600560003373ffffffffffffffffffffffffffffffffffffffff1673ffffffffffffffffffffffffffffffffffffffff168152602001908152602001600020819055506001600260008282546102b8919061151e565b9250508190555060016000808282546102d1919061151e565b925050819055506102fa60405180606001604052806029815260200161175e6029913933610c98565b600460405180608001604052803373ffffffffffffffffffffffffffffffffffffffff1681526020018381526020014281526020016040518060400160405280600a81526020017f416c69656e207368697000000000000000000000000000000000000000000000815250815250908060018154018082558091505060019003906000526020600020906004020160009091909190915060008201518160000160006101000a81548173ffffffffffffffffffffffffffffffffffffffff021916908373ffffffffffffffffffffffffffffffffffffffff16021790555060208201518160010190805190602001906103f4929190610d5d565b5060408201518160020155606082015181600301908051906020019061041b929190610d5d565b5050503373ffffffffffffffffffffffffffffffffffffffff167f860cf708c2b415ec3f49accc443e84e9e2d419e4ddcdb8feb16df90746256db94283604051610466929190611409565b60405180910390a261047860006109b2565b50565b60006104be6040518060400160405280601d81526020017f256420656e74697469657320686176652063686f73656e206661636521000000815250600154610bfc565b600154905090565b60006105096040518060400160405280601d81526020017f256420656e7469746965732068617665207761766564206174206d6521000000815250600054610bfc565b600054905090565b60056020528060005260406000206000915090505481565b426078600560003373ffffffffffffffffffffffffffffffffffffffff1673ffffffffffffffffffffffffffffffffffffffff16815260200190815260200160002054610576919061151e565b106105b6576040517f08c379a00000000000000000000000000000000000000000000000000000000081526004016105ad9061134b565b60405180910390fd5b42600560003373ffffffffffffffffffffffffffffffffffffffff1673ffffffffffffffffffffffffffffffffffffffff16815260200190815260200160002081905550600180600082825461060c919061151e565b925050819055506001600080828254610625919061151e565b9250508190555061064e6040518060600160405280602981526020016117876029913933610c98565b600460405180608001604052803373ffffffffffffffffffffffffffffffffffffffff1681526020018381526020014281526020016040518060400160405280600a81526020017f416c69656e206661636500000000000000000000000000000000000000000000815250815250908060018154018082558091505060019003906000526020600020906004020160009091909190915060008201518160000160006101000a81548173ffffffffffffffffffffffffffffffffffffffff021916908373ffffffffffffffffffffffffffffffffffffffff1602179055506020820151816001019080519060200190610748929190610d5d565b5060408201518160020155606082015181600301908051906020019061076f929190610d5d565b5050503373ffffffffffffffffffffffffffffffffffffffff167f860cf708c2b415ec3f49accc443e84e9e2d419e4ddcdb8feb16df90746256db942836040516107ba9291906113c6565b60405180910390a26107cc60016109b2565b50565b60606004805480602002602001604051908101604052809291908181526020016000905b828210156109a957838290600052602060002090600402016040518060800160405290816000820160009054906101000a900473ffffffffffffffffffffffffffffffffffffffff1673ffffffffffffffffffffffffffffffffffffffff1673ffffffffffffffffffffffffffffffffffffffff16815260200160018201805461087c906115ff565b80601f01602080910402602001604051908101604052809291908181526020018280546108a8906115ff565b80156108f55780601f106108ca576101008083540402835291602001916108f5565b820191906000526020600020905b8154815290600101906020018083116108d857829003601f168201915b5050505050815260200160028201548152602001600382018054610918906115ff565b80601f0160208091040260200160405190810160405280929190818152602001828054610944906115ff565b80156109915780601f1061096657610100808354040283529160200191610991565b820191906000526020600020905b81548152906001019060200180831161097457829003601f168201915b505050505081525050815260200190600101906107f3565b50505050905090565b6109ba610189565b6109c261047b565b11156109dd5760018160ff16146109d857610b60565b6109ee565b60008160ff16146109ed57610b60565b5b606460035442446109ff919061151e565b610a09919061151e565b610a139190611631565b600381905550603260035411610b5f57610a626040518060400160405280600781526020017f257320776f6e210000000000000000000000000000000000000000000000000081525033610c98565b6000655af3107a4000905047811115610ab0576040517f08c379a0000000000000000000000000000000000000000000000000000000008152600401610aa79061136b565b60405180910390fd5b60003373ffffffffffffffffffffffffffffffffffffffff1682604051610ad690611292565b60006040518083038185875af1925050503d8060008114610b13576040519150601f19603f3d011682016040523d82523d6000602084013e610b18565b606091505b5050905080610b5c576040517f08c379a0000000000000000000000000000000000000000000000000000000008152600401610b539061138b565b60405180910390fd5b50505b5b50565b610bf981604051602401610b7791906112c9565b6040516020818303038152906040527f41304fac000000000000000000000000000000000000000000000000000000007bffffffffffffffffffffffffffffffffffffffffffffffffffffffff19166020820180517bffffffffffffffffffffffffffffffffffffffffffffffffffffffff8381831617835250505050610d34565b50565b610c948282604051602401610c1292919061131b565b6040516020818303038152906040527f9710a9d0000000000000000000000000000000000000000000000000000000007bffffffffffffffffffffffffffffffffffffffffffffffffffffffff19166020820180517bffffffffffffffffffffffffffffffffffffffffffffffffffffffff8381831617835250505050610d34565b5050565b610d308282604051602401610cae9291906112eb565b6040516020818303038152906040527f319af333000000000000000000000000000000000000000000000000000000007bffffffffffffffffffffffffffffffffffffffffffffffffffffffff19166020820180517bffffffffffffffffffffffffffffffffffffffffffffffffffffffff8381831617835250505050610d34565b5050565b60008151905060006a636f6e736f6c652e6c6f679050602083016000808483855afa5050505050565b828054610d69906115ff565b90600052602060002090601f016020900481019282610d8b5760008555610dd2565b82601f10610da457805160ff1916838001178555610dd2565b82800160010185558215610dd2579182015b82811115610dd1578251825591602001919060010190610db6565b5b509050610ddf9190610de3565b5090565b5b80821115610dfc576000816000905550600101610de4565b5090565b6000610e13610e0e8461147d565b61144c565b905082815260208101848484011115610e2b57600080fd5b610e368482856115bd565b509392505050565b600081359050610e4d8161172f565b92915050565b600082601f830112610e6457600080fd5b8135610e74848260208601610e00565b91505092915050565b600081359050610e8c81611746565b92915050565b600060208284031215610ea457600080fd5b6000610eb284828501610e3e565b91505092915050565b600060208284031215610ecd57600080fd5b600082013567ffffffffffffffff811115610ee757600080fd5b610ef384828501610e53565b91505092915050565b600060208284031215610f0e57600080fd5b6000610f1c84828501610e7d565b91505092915050565b6000610f31838361120a565b905092915050565b610f4281611574565b82525050565b610f5181611574565b82525050565b6000610f62826114bd565b610f6c81856114e0565b935083602082028501610f7e856114ad565b8060005b85811015610fba5784840389528151610f9b8582610f25565b9450610fa6836114d3565b925060208a01995050600181019050610f82565b50829750879550505050505092915050565b6000610fd7826114c8565b610fe181856114fc565b9350610ff18185602086016115cc565b610ffa8161171e565b840191505092915050565b6000611010826114c8565b61101a818561150d565b935061102a8185602086016115cc565b6110338161171e565b840191505092915050565b600061104b600a8361150d565b91507f416c69656e2066616365000000000000000000000000000000000000000000006000830152602082019050919050565b600061108b60258361150d565b91507f4d75737420776169742032206d696e73206265666f726520766f74696e67206160008301527f6761696e2e0000000000000000000000000000000000000000000000000000006020830152604082019050919050565b60006110f160348361150d565b91507f547279696e6720746f207769746864726177206d6f7265206d6f6e657920746860008301527f616e2074686520636f6e7472616374206861732e0000000000000000000000006020830152604082019050919050565b600061115760278361150d565b91507f4661696c656420746f207769746864726177206d6f6e65792066726f6d20636f60008301527f6e74726163742e000000000000000000000000000000000000000000000000006020830152604082019050919050565b60006111bd6000836114f1565b9150600082019050919050565b60006111d7600a8361150d565b91507f416c69656e2073686970000000000000000000000000000000000000000000006000830152602082019050919050565b60006080830160008301516112226000860182610f39565b506020830151848203602086015261123a8282610fcc565b915050604083015161124f6040860182611274565b50606083015184820360608601526112678282610fcc565b9150508091505092915050565b61127d816115a6565b82525050565b61128c816115a6565b82525050565b600061129d826111b0565b9150819050919050565b600060208201905081810360008301526112c18184610f57565b905092915050565b600060208201905081810360008301526112e38184611005565b905092915050565b600060408201905081810360008301526113058185611005565b90506113146020830184610f48565b9392505050565b600060408201905081810360008301526113358185611005565b90506113446020830184611283565b9392505050565b600060208201905081810360008301526113648161107e565b9050919050565b60006020820190508181036000830152611384816110e4565b9050919050565b600060208201905081810360008301526113a48161114a565b9050919050565b60006020820190506113c06000830184611283565b92915050565b60006060820190506113db6000830185611283565b81810360208301526113ed8184611005565b905081810360408301526114008161103e565b90509392505050565b600060608201905061141e6000830185611283565b81810360208301526114308184611005565b90508181036040830152611443816111ca565b90509392505050565b6000604051905081810181811067ffffffffffffffff82111715611473576114726116ef565b5b8060405250919050565b600067ffffffffffffffff821115611498576114976116ef565b5b601f19601f8301169050602081019050919050565b6000819050602082019050919050565b600081519050919050565b600081519050919050565b6000602082019050919050565b600082825260208201905092915050565b600081905092915050565b600082825260208201905092915050565b600082825260208201905092915050565b6000611529826115a6565b9150611534836115a6565b9250827fffffffffffffffffffffffffffffffffffffffffffffffffffffffffffffffff0382111561156957611568611662565b5b828201905092915050565b600061157f82611586565b9050919050565b600073ffffffffffffffffffffffffffffffffffffffff82169050919050565b6000819050919050565b600060ff82169050919050565b82818337600083830152505050565b60005b838110156115ea5780820151818401526020810190506115cf565b838111156115f9576000848401525b50505050565b6000600282049050600182168061161757607f821691505b6020821081141561162b5761162a6116c0565b5b50919050565b600061163c826115a6565b9150611647836115a6565b92508261165757611656611691565b5b828206905092915050565b7f4e487b7100000000000000000000000000000000000000000000000000000000600052601160045260246000fd5b7f4e487b7100000000000000000000000000000000000000000000000000000000600052601260045260246000fd5b7f4e487b7100000000000000000000000000000000000000000000000000000000600052602260045260246000fd5b7f4e487b7100000000000000000000000000000000000000000000000000000000600052604160045260246000fd5b6000601f19601f8301169050919050565b61173881611574565b811461174357600080fd5b50565b61174f816115b0565b811461175a57600080fd5b5056fe0a416c69656e207368697020616c6c20746865207761792120257320697320736869702067616e67210a416c69656e206661636520616c6c20746865207761792120257320697320666163652067616e6721a2646970667358221220f3ad616f49629a41e4513ccdd72a2a026e5fff5aab267e27268650f5c8acc2ae64736f6c6343000800003341796f212074686973206973206d7920736d61727420636f6e7472616374207e7e7e7e",
  "linkReferences": {},
  "deployedLinkReferences": {}
}