{
  "_format": "hh-sol-artifact-1",
  "contractName": "Claritable",
  "sourceName": "contracts/Claritable.sol",
  "abi": [
    {
      "inputs": [],
      "stateMutability": "payable",
      "type": "constructor"
    },
    {
      "anonymous": false,
      "inputs": [
        {
          "indexed": false,
          "internalType": "address",
          "name": "donor",
          "type": "address"
        },
        {
          "indexed": false,
          "internalType": "uint256",
          "name": "amount",
          "type": "uint256"
        },
        {
          "indexed": false,
          "internalType": "string",
          "name": "CharityName",
          "type": "string"
        }
      ],
      "name": "Donation",
      "type": "event"
    },
    {
      "anonymous": false,
      "inputs": [
        {
          "indexed": false,
          "internalType": "string",
          "name": "reason",
          "type": "string"
        },
        {
          "indexed": false,
          "internalType": "uint256",
          "name": "amount",
          "type": "uint256"
        },
        {
          "indexed": false,
          "internalType": "address",
          "name": "selected_donor",
          "type": "address"
        },
        {
          "indexed": false,
          "internalType": "string",
          "name": "CharityName",
          "type": "string"
        }
      ],
      "name": "Spend",
      "type": "event"
    },
    {
      "inputs": [
        {
          "internalType": "address",
          "name": "",
          "type": "address"
        }
      ],
      "name": "EducationDonors",
      "outputs": [
        {
          "internalType": "uint256",
          "name": "",
          "type": "uint256"
        }
      ],
      "stateMutability": "view",
      "type": "function"
    },
    {
      "inputs": [
        {
          "internalType": "address",
          "name": "",
          "type": "address"
        },
        {
          "internalType": "uint256",
          "name": "",
          "type": "uint256"
        }
      ],
      "name": "EducationSpends",
      "outputs": [
        {
          "internalType": "string",
          "name": "reason",
          "type": "string"
        },
        {
          "internalType": "uint256",
          "name": "amount_spent",
          "type": "uint256"
        }
      ],
      "stateMutability": "view",
      "type": "function"
    },
    {
      "inputs": [
        {
          "internalType": "address",
          "name": "",
          "type": "address"
        }
      ],
      "name": "GirlChildDonors",
      "outputs": [
        {
          "internalType": "uint256",
          "name": "",
          "type": "uint256"
        }
      ],
      "stateMutability": "view",
      "type": "function"
    },
    {
      "inputs": [
        {
          "internalType": "address",
          "name": "",
          "type": "address"
        },
        {
          "internalType": "uint256",
          "name": "",
          "type": "uint256"
        }
      ],
      "name": "GirlChildSpends",
      "outputs": [
        {
          "internalType": "string",
          "name": "reason",
          "type": "string"
        },
        {
          "internalType": "uint256",
          "name": "amount_spent",
          "type": "uint256"
        }
      ],
      "stateMutability": "view",
      "type": "function"
    },
    {
      "inputs": [
        {
          "internalType": "address",
          "name": "",
          "type": "address"
        }
      ],
      "name": "UkraineDonors",
      "outputs": [
        {
          "internalType": "uint256",
          "name": "",
          "type": "uint256"
        }
      ],
      "stateMutability": "view",
      "type": "function"
    },
    {
      "inputs": [
        {
          "internalType": "address",
          "name": "",
          "type": "address"
        },
        {
          "internalType": "uint256",
          "name": "",
          "type": "uint256"
        }
      ],
      "name": "UkraineSpends",
      "outputs": [
        {
          "internalType": "string",
          "name": "reason",
          "type": "string"
        },
        {
          "internalType": "uint256",
          "name": "amount_spent",
          "type": "uint256"
        }
      ],
      "stateMutability": "view",
      "type": "function"
    },
    {
      "inputs": [],
      "name": "donateEducation",
      "outputs": [],
      "stateMutability": "payable",
      "type": "function"
    },
    {
      "inputs": [],
      "name": "donateGirlChild",
      "outputs": [],
      "stateMutability": "payable",
      "type": "function"
    },
    {
      "inputs": [],
      "name": "donateUkraine",
      "outputs": [],
      "stateMutability": "payable",
      "type": "function"
    },
    {
      "inputs": [
        {
          "internalType": "uint256",
          "name": "position",
          "type": "uint256"
        }
      ],
      "name": "getAvailableDonorsEducation",
      "outputs": [
        {
          "internalType": "address",
          "name": "",
          "type": "address"
        }
      ],
      "stateMutability": "view",
      "type": "function"
    },
    {
      "inputs": [
        {
          "internalType": "uint256",
          "name": "position",
          "type": "uint256"
        }
      ],
      "name": "getAvailableDonorsGirlChild",
      "outputs": [
        {
          "internalType": "address",
          "name": "",
          "type": "address"
        }
      ],
      "stateMutability": "view",
      "type": "function"
    },
    {
      "inputs": [
        {
          "internalType": "uint256",
          "name": "position",
          "type": "uint256"
        }
      ],
      "name": "getAvailableDonorsUkraine",
      "outputs": [
        {
          "internalType": "address",
          "name": "",
          "type": "address"
        }
      ],
      "stateMutability": "view",
      "type": "function"
    },
    {
      "inputs": [],
      "name": "getEducationCharityAddress",
      "outputs": [
        {
          "internalType": "address payable",
          "name": "",
          "type": "address"
        }
      ],
      "stateMutability": "view",
      "type": "function"
    },
    {
      "inputs": [
        {
          "internalType": "address",
          "name": "donor",
          "type": "address"
        }
      ],
      "name": "getEducationDonors",
      "outputs": [
        {
          "internalType": "uint256",
          "name": "",
          "type": "uint256"
        }
      ],
      "stateMutability": "view",
      "type": "function"
    },
    {
      "inputs": [
        {
          "internalType": "address",
          "name": "donor",
          "type": "address"
        },
        {
          "internalType": "uint256",
          "name": "position",
          "type": "uint256"
        }
      ],
      "name": "getEducationSpendRequestAmountSpent",
      "outputs": [
        {
          "internalType": "uint256",
          "name": "",
          "type": "uint256"
        }
      ],
      "stateMutability": "view",
      "type": "function"
    },
    {
      "inputs": [
        {
          "internalType": "address",
          "name": "donor",
          "type": "address"
        },
        {
          "internalType": "uint256",
          "name": "position",
          "type": "uint256"
        }
      ],
      "name": "getEducationSpendRequestReason",
      "outputs": [
        {
          "internalType": "string",
          "name": "",
          "type": "string"
        }
      ],
      "stateMutability": "view",
      "type": "function"
    },
    {
      "inputs": [],
      "name": "getGirlChildCharityAddress",
      "outputs": [
        {
          "internalType": "address payable",
          "name": "",
          "type": "address"
        }
      ],
      "stateMutability": "view",
      "type": "function"
    },
    {
      "inputs": [
        {
          "internalType": "address",
          "name": "donor",
          "type": "address"
        }
      ],
      "name": "getGirlChildDonors",
      "outputs": [
        {
          "internalType": "uint256",
          "name": "",
          "type": "uint256"
        }
      ],
      "stateMutability": "view",
      "type": "function"
    },
    {
      "inputs": [
        {
          "internalType": "address",
          "name": "donor",
          "type": "address"
        },
        {
          "internalType": "uint256",
          "name": "position",
          "type": "uint256"
        }
      ],
      "name": "getGirlChildSpendRequestAmountSpent",
      "outputs": [
        {
          "internalType": "uint256",
          "name": "",
          "type": "uint256"
        }
      ],
      "stateMutability": "view",
      "type": "function"
    },
    {
      "inputs": [
        {
          "internalType": "address",
          "name": "donor",
          "type": "address"
        },
        {
          "internalType": "uint256",
          "name": "position",
          "type": "uint256"
        }
      ],
      "name": "getGirlChildSpendRequestReason",
      "outputs": [
        {
          "internalType": "string",
          "name": "",
          "type": "string"
        }
      ],
      "stateMutability": "view",
      "type": "function"
    },
    {
      "inputs": [],
      "name": "getNumberOfAvailableDonorsEducation",
      "outputs": [
        {
          "internalType": "uint256",
          "name": "",
          "type": "uint256"
        }
      ],
      "stateMutability": "view",
      "type": "function"
    },
    {
      "inputs": [],
      "name": "getNumberOfAvailableDonorsGirlChild",
      "outputs": [
        {
          "internalType": "uint256",
          "name": "",
          "type": "uint256"
        }
      ],
      "stateMutability": "view",
      "type": "function"
    },
    {
      "inputs": [],
      "name": "getNumberOfAvailableDonorsUkraine",
      "outputs": [
        {
          "internalType": "uint256",
          "name": "",
          "type": "uint256"
        }
      ],
      "stateMutability": "view",
      "type": "function"
    },
    {
      "inputs": [
        {
          "internalType": "address",
          "name": "donor",
          "type": "address"
        }
      ],
      "name": "getNumberOfEducationSpendRequest",
      "outputs": [
        {
          "internalType": "uint256",
          "name": "",
          "type": "uint256"
        }
      ],
      "stateMutability": "view",
      "type": "function"
    },
    {
      "inputs": [
        {
          "internalType": "address",
          "name": "donor",
          "type": "address"
        }
      ],
      "name": "getNumberOfGirlChildSpendRequest",
      "outputs": [
        {
          "internalType": "uint256",
          "name": "",
          "type": "uint256"
        }
      ],
      "stateMutability": "view",
      "type": "function"
    },
    {
      "inputs": [
        {
          "internalType": "address",
          "name": "donor",
          "type": "address"
        }
      ],
      "name": "getNumberOfUkraineSpendRequest",
      "outputs": [
        {
          "internalType": "uint256",
          "name": "",
          "type": "uint256"
        }
      ],
      "stateMutability": "view",
      "type": "function"
    },
    {
      "inputs": [],
      "name": "getTotalDonationsEducation",
      "outputs": [
        {
          "internalType": "uint256",
          "name": "",
          "type": "uint256"
        }
      ],
      "stateMutability": "view",
      "type": "function"
    },
    {
      "inputs": [],
      "name": "getTotalDonationsGirlChild",
      "outputs": [
        {
          "internalType": "uint256",
          "name": "",
          "type": "uint256"
        }
      ],
      "stateMutability": "view",
      "type": "function"
    },
    {
      "inputs": [],
      "name": "getTotalDonationsUkraine",
      "outputs": [
        {
          "internalType": "uint256",
          "name": "",
          "type": "uint256"
        }
      ],
      "stateMutability": "view",
      "type": "function"
    },
    {
      "inputs": [],
      "name": "getUkraineCharityAddress",
      "outputs": [
        {
          "internalType": "address payable",
          "name": "",
          "type": "address"
        }
      ],
      "stateMutability": "view",
      "type": "function"
    },
    {
      "inputs": [
        {
          "internalType": "address",
          "name": "donor",
          "type": "address"
        }
      ],
      "name": "getUkraineDonors",
      "outputs": [
        {
          "internalType": "uint256",
          "name": "",
          "type": "uint256"
        }
      ],
      "stateMutability": "view",
      "type": "function"
    },
    {
      "inputs": [
        {
          "internalType": "address",
          "name": "donor",
          "type": "address"
        },
        {
          "internalType": "uint256",
          "name": "position",
          "type": "uint256"
        }
      ],
      "name": "getUkraineSpendRequestAmountSpent",
      "outputs": [
        {
          "internalType": "uint256",
          "name": "",
          "type": "uint256"
        }
      ],
      "stateMutability": "view",
      "type": "function"
    },
    {
      "inputs": [
        {
          "internalType": "address",
          "name": "donor",
          "type": "address"
        },
        {
          "internalType": "uint256",
          "name": "position",
          "type": "uint256"
        }
      ],
      "name": "getUkraineSpendRequestReason",
      "outputs": [
        {
          "internalType": "string",
          "name": "",
          "type": "string"
        }
      ],
      "stateMutability": "view",
      "type": "function"
    },
    {
      "inputs": [
        {
          "internalType": "string",
          "name": "_reason",
          "type": "string"
        },
        {
          "internalType": "uint256",
          "name": "amount",
          "type": "uint256"
        }
      ],
      "name": "spendEducation",
      "outputs": [],
      "stateMutability": "nonpayable",
      "type": "function"
    },
    {
      "inputs": [
        {
          "internalType": "string",
          "name": "_reason",
          "type": "string"
        },
        {
          "internalType": "uint256",
          "name": "amount",
          "type": "uint256"
        }
      ],
      "name": "spendGirlChild",
      "outputs": [],
      "stateMutability": "nonpayable",
      "type": "function"
    },
    {
      "inputs": [
        {
          "internalType": "string",
          "name": "_reason",
          "type": "string"
        },
        {
          "internalType": "uint256",
          "name": "amount",
          "type": "uint256"
        }
      ],
      "name": "spendUkraine",
      "outputs": [],
      "stateMutability": "nonpayable",
      "type": "function"
    }
  ],
  "bytecode": "0x60806040526200004f6040518060400160405280601681526020017f536d61727420436f6e74726163742063726561746564000000000000000000008152506200016b60201b620020541760201c565b73150a7908abf2738fa5162e1df032da041a2481ca6000806101000a81548173ffffffffffffffffffffffffffffffffffffffff021916908373ffffffffffffffffffffffffffffffffffffffff16021790555073edecc2e46f822c10e6c53996deefa8fc70f0a1de600160006101000a81548173ffffffffffffffffffffffffffffffffffffffff021916908373ffffffffffffffffffffffffffffffffffffffff16021790555073632746282e9387134f113ce217e39c844acdaca4600260006101000a81548173ffffffffffffffffffffffffffffffffffffffff021916908373ffffffffffffffffffffffffffffffffffffffff16021790555060006009819055506000600a819055506000600b81905550620002ff565b6200020b81604051602401620001829190620002db565b6040516020818303038152906040527f41304fac000000000000000000000000000000000000000000000000000000007bffffffffffffffffffffffffffffffffffffffffffffffffffffffff19166020820180517bffffffffffffffffffffffffffffffffffffffffffffffffffffffff83818316178352505050506200020e60201b60201c565b50565b60008151905060006a636f6e736f6c652e6c6f679050602083016000808483855afa5050505050565b600081519050919050565b600082825260208201905092915050565b60005b838110156200027357808201518184015260208101905062000256565b8381111562000283576000848401525b50505050565b6000601f19601f8301169050919050565b6000620002a78262000237565b620002b3818562000242565b9350620002c581856020860162000253565b620002d08162000289565b840191505092915050565b60006020820190508181036000830152620002f781846200029a565b905092915050565b612fed806200030f6000396000f3fe60806040526004361061020f5760003560e01c80636884078e11610118578063a8dd3065116100a0578063d7c802a21161006f578063d7c802a214610859578063e0e40b3914610896578063f56f4120146108c1578063fa55fb4f146108ec578063fb837eb0146108f65761020f565b8063a8dd306514610779578063b8c75f92146107b6578063ca1b4d08146107f3578063d644828b146108305761020f565b80638ee68f3e116100e75780638ee68f3e1461066d5780638fb12e99146106ab57806397c52c63146106d457806398569d0e146106ff578063a64c4d6f1461073c5761020f565b80636884078e146105795780636b20708e146105b65780636d5e7ae6146105f35780637c8d987f146106305761020f565b8063450ebaad1161019b57806351aea2d91161016a57806351aea2d9146104c35780635349924f146104cd5780635e857b23146104f857806362884343146105235780636298a1ea1461054e5761020f565b8063450ebaad146103e157806345451b431461040c578063460abacd1461044957806347e8ba08146104865761020f565b80632f68c7d1116101e25780632f68c7d1146102c4578063328f79d11461030157806333f63fcd1461033e57806334d208b71461037b578063380f7d76146103b85761020f565b806304b461ea146102145780630c85ec9f146102515780631ddab5851461028f5780632dafcfab14610299575b600080fd5b34801561022057600080fd5b5061023b60048036038101906102369190612711565b610934565b6040516102489190612760565b60405180910390f35b34801561025d57600080fd5b5061027860048036038101906102739190612711565b6109a1565b604051610286929190612814565b60405180910390f35b610297610a6a565b005b3480156102a557600080fd5b506102ae610bc0565b6040516102bb9190612760565b60405180910390f35b3480156102d057600080fd5b506102eb60048036038101906102e69190612844565b610bcd565b6040516102f89190612760565b60405180910390f35b34801561030d57600080fd5b5061032860048036038101906103239190612844565b610c19565b6040516103359190612760565b60405180910390f35b34801561034a57600080fd5b5061036560048036038101906103609190612711565b610c31565b6040516103729190612871565b60405180910390f35b34801561038757600080fd5b506103a2600480360381019061039d9190612844565b610d26565b6040516103af9190612760565b60405180910390f35b3480156103c457600080fd5b506103df60048036038101906103da91906129c8565b610d72565b005b3480156103ed57600080fd5b506103f6611072565b6040516104039190612a45565b60405180910390f35b34801561041857600080fd5b50610433600480360381019061042e9190612844565b61109c565b6040516104409190612760565b60405180910390f35b34801561045557600080fd5b50610470600480360381019061046b9190612a60565b6110e5565b60405161047d9190612a9c565b60405180910390f35b34801561049257600080fd5b506104ad60048036038101906104a89190612711565b61112d565b6040516104ba9190612871565b60405180910390f35b6104cb611222565b005b3480156104d957600080fd5b506104e2611378565b6040516104ef9190612a45565b60405180910390f35b34801561050457600080fd5b5061050d6113a2565b60405161051a9190612a45565b60405180910390f35b34801561052f57600080fd5b506105386113cb565b6040516105459190612760565b60405180910390f35b34801561055a57600080fd5b506105636113d8565b6040516105709190612760565b60405180910390f35b34801561058557600080fd5b506105a0600480360381019061059b9190612844565b6113e5565b6040516105ad9190612760565b60405180910390f35b3480156105c257600080fd5b506105dd60048036038101906105d89190612711565b61142e565b6040516105ea9190612871565b60405180910390f35b3480156105ff57600080fd5b5061061a60048036038101906106159190612711565b611523565b6040516106279190612760565b60405180910390f35b34801561063c57600080fd5b5061065760048036038101906106529190612a60565b611590565b6040516106649190612a9c565b60405180910390f35b34801561067957600080fd5b50610694600480360381019061068f9190612711565b6115d8565b6040516106a2929190612814565b60405180910390f35b3480156106b757600080fd5b506106d260048036038101906106cd91906129c8565b6116a1565b005b3480156106e057600080fd5b506106e96119a1565b6040516106f69190612760565b60405180910390f35b34801561070b57600080fd5b5061072660048036038101906107219190612844565b6119ab565b6040516107339190612760565b60405180910390f35b34801561074857600080fd5b50610763600480360381019061075e9190612711565b6119c3565b6040516107709190612760565b60405180910390f35b34801561078557600080fd5b506107a0600480360381019061079b9190612844565b611a30565b6040516107ad9190612760565b60405180910390f35b3480156107c257600080fd5b506107dd60048036038101906107d89190612a60565b611a79565b6040516107ea9190612a9c565b60405180910390f35b3480156107ff57600080fd5b5061081a60048036038101906108159190612844565b611ac1565b6040516108279190612760565b60405180910390f35b34801561083c57600080fd5b50610857600480360381019061085291906129c8565b611ad9565b005b34801561086557600080fd5b50610880600480360381019061087b9190612844565b611dd5565b60405161088d9190612760565b60405180910390f35b3480156108a257600080fd5b506108ab611e21565b6040516108b89190612760565b60405180910390f35b3480156108cd57600080fd5b506108d6611e2b565b6040516108e39190612760565b60405180910390f35b6108f4611e35565b005b34801561090257600080fd5b5061091d60048036038101906109189190612711565b611f8b565b60405161092b929190612814565b60405180910390f35b6000600860008473ffffffffffffffffffffffffffffffffffffffff1673ffffffffffffffffffffffffffffffffffffffff168152602001908152602001600020828154811061098757610986612ab7565b5b906000526020600020906002020160010154905092915050565b600760205281600052604060002081815481106109bd57600080fd5b9060005260206000209060020201600091509150508060000180546109e190612b15565b80601f0160208091040260200160405190810160405280929190818152602001828054610a0d90612b15565b8015610a5a5780601f10610a2f57610100808354040283529160200191610a5a565b820191906000526020600020905b815481529060010190602001808311610a3d57829003601f168201915b5050505050908060010154905082565b7f144b533d556be80bda7c5cb4a1717ed31d063cedea86db1cb5db0fd157bf5d4f3334604051610a9b929190612b93565b60405180910390a16000600460003373ffffffffffffffffffffffffffffffffffffffff1673ffffffffffffffffffffffffffffffffffffffff168152602001908152602001600020541415610b4f57600d339080600181540180825580915050600190039060005260206000200160009091909190916101000a81548173ffffffffffffffffffffffffffffffffffffffff021916908373ffffffffffffffffffffffffffffffffffffffff1602179055505b34600a6000828254610b619190612bfe565b9250508190555034600460003373ffffffffffffffffffffffffffffffffffffffff1673ffffffffffffffffffffffffffffffffffffffff1681526020019081526020016000206000828254610bb79190612bfe565b92505081905550565b6000600c80549050905090565b6000600860008373ffffffffffffffffffffffffffffffffffffffff1673ffffffffffffffffffffffffffffffffffffffff168152602001908152602001600020805490509050919050565b60056020528060005260406000206000915090505481565b6060600860008473ffffffffffffffffffffffffffffffffffffffff1673ffffffffffffffffffffffffffffffffffffffff1681526020019081526020016000208281548110610c8457610c83612ab7565b5b90600052602060002090600202016000018054610ca090612b15565b80601f0160208091040260200160405190810160405280929190818152602001828054610ccc90612b15565b8015610d195780601f10610cee57610100808354040283529160200191610d19565b820191906000526020600020905b815481529060010190602001808311610cfc57829003601f168201915b5050505050905092915050565b6000600760008373ffffffffffffffffffffffffffffffffffffffff1673ffffffffffffffffffffffffffffffffffffffff168152602001908152602001600020805490509050919050565b600a548110610db6576040517f08c379a0000000000000000000000000000000000000000000000000000000008152600401610dad90612ca0565b60405180910390fd5b60005b8181101561102d576000600d6001600d80549050610dd79190612cc0565b81548110610de857610de7612ab7565b5b9060005260206000200160009054906101000a900473ffffffffffffffffffffffffffffffffffffffff169050600d805480610e2757610e26612cf4565b5b6001900381819060005260206000200160006101000a81549073ffffffffffffffffffffffffffffffffffffffff021916905590556000600460008373ffffffffffffffffffffffffffffffffffffffff1673ffffffffffffffffffffffffffffffffffffffff16815260200190815260200160002054905060008385610eae9190612cc0565b905080821115610fa2578084610ec49190612bfe565b9350600d839080600181540180825580915050600190039060005260206000200160009091909190916101000a81548173ffffffffffffffffffffffffffffffffffffffff021916908373ffffffffffffffffffffffffffffffffffffffff160217905550600160009054906101000a900473ffffffffffffffffffffffffffffffffffffffff1673ffffffffffffffffffffffffffffffffffffffff166108fc829081150290604051600060405180830381858888f19350505050158015610f91573d6000803e3d6000fd5b50610f9d8682856120ed565b611025565b8184610fae9190612bfe565b9350600160009054906101000a900473ffffffffffffffffffffffffffffffffffffffff1673ffffffffffffffffffffffffffffffffffffffff166108fc839081150290604051600060405180830381858888f19350505050158015611018573d6000803e3d6000fd5b506110248683856120ed565b5b505050610db9565b61106d6040518060400160405280601381526020017f596f75207370656e74202564206f6e20257321000000000000000000000000008152508385612248565b505050565b6000600260009054906101000a900473ffffffffffffffffffffffffffffffffffffffff16905090565b6000600460008373ffffffffffffffffffffffffffffffffffffffff1673ffffffffffffffffffffffffffffffffffffffff168152602001908152602001600020549050919050565b6000600e82815481106110fb576110fa612ab7565b5b9060005260206000200160009054906101000a900473ffffffffffffffffffffffffffffffffffffffff169050919050565b6060600760008473ffffffffffffffffffffffffffffffffffffffff1673ffffffffffffffffffffffffffffffffffffffff16815260200190815260200160002082815481106111805761117f612ab7565b5b9060005260206000209060020201600001805461119c90612b15565b80601f01602080910402602001604051908101604052809291908181526020018280546111c890612b15565b80156112155780601f106111ea57610100808354040283529160200191611215565b820191906000526020600020905b8154815290600101906020018083116111f857829003601f168201915b5050505050905092915050565b7f144b533d556be80bda7c5cb4a1717ed31d063cedea86db1cb5db0fd157bf5d4f3334604051611253929190612d6f565b60405180910390a16000600360003373ffffffffffffffffffffffffffffffffffffffff1673ffffffffffffffffffffffffffffffffffffffff16815260200190815260200160002054141561130757600c339080600181540180825580915050600190039060005260206000200160009091909190916101000a81548173ffffffffffffffffffffffffffffffffffffffff021916908373ffffffffffffffffffffffffffffffffffffffff1602179055505b34600960008282546113199190612bfe565b9250508190555034600360003373ffffffffffffffffffffffffffffffffffffffff1673ffffffffffffffffffffffffffffffffffffffff168152602001908152602001600020600082825461136f9190612bfe565b92505081905550565b6000600160009054906101000a900473ffffffffffffffffffffffffffffffffffffffff16905090565b60008060009054906101000a900473ffffffffffffffffffffffffffffffffffffffff16905090565b6000600e80549050905090565b6000600d80549050905090565b6000600560008373ffffffffffffffffffffffffffffffffffffffff1673ffffffffffffffffffffffffffffffffffffffff168152602001908152602001600020549050919050565b6060600660008473ffffffffffffffffffffffffffffffffffffffff1673ffffffffffffffffffffffffffffffffffffffff168152602001908152602001600020828154811061148157611480612ab7565b5b9060005260206000209060020201600001805461149d90612b15565b80601f01602080910402602001604051908101604052809291908181526020018280546114c990612b15565b80156115165780601f106114eb57610100808354040283529160200191611516565b820191906000526020600020905b8154815290600101906020018083116114f957829003601f168201915b5050505050905092915050565b6000600660008473ffffffffffffffffffffffffffffffffffffffff1673ffffffffffffffffffffffffffffffffffffffff168152602001908152602001600020828154811061157657611575612ab7565b5b906000526020600020906002020160010154905092915050565b6000600d82815481106115a6576115a5612ab7565b5b9060005260206000200160009054906101000a900473ffffffffffffffffffffffffffffffffffffffff169050919050565b600660205281600052604060002081815481106115f457600080fd5b90600052602060002090600202016000915091505080600001805461161890612b15565b80601f016020809104026020016040519081016040528092919081815260200182805461164490612b15565b80156116915780601f1061166657610100808354040283529160200191611691565b820191906000526020600020905b81548152906001019060200180831161167457829003601f168201915b5050505050908060010154905082565b600b5481106116e5576040517f08c379a00000000000000000000000000000000000000000000000000000000081526004016116dc90612ca0565b60405180910390fd5b60005b8181101561195c576000600e6001600e805490506117069190612cc0565b8154811061171757611716612ab7565b5b9060005260206000200160009054906101000a900473ffffffffffffffffffffffffffffffffffffffff169050600e80548061175657611755612cf4565b5b6001900381819060005260206000200160006101000a81549073ffffffffffffffffffffffffffffffffffffffff021916905590556000600560008373ffffffffffffffffffffffffffffffffffffffff1673ffffffffffffffffffffffffffffffffffffffff168152602001908152602001600020549050600083856117dd9190612cc0565b9050808211156118d15780846117f39190612bfe565b9350600e839080600181540180825580915050600190039060005260206000200160009091909190916101000a81548173ffffffffffffffffffffffffffffffffffffffff021916908373ffffffffffffffffffffffffffffffffffffffff160217905550600260009054906101000a900473ffffffffffffffffffffffffffffffffffffffff1673ffffffffffffffffffffffffffffffffffffffff166108fc829081150290604051600060405180830381858888f193505050501580156118c0573d6000803e3d6000fd5b506118cc8682856122e7565b611954565b81846118dd9190612bfe565b9350600260009054906101000a900473ffffffffffffffffffffffffffffffffffffffff1673ffffffffffffffffffffffffffffffffffffffff166108fc839081150290604051600060405180830381858888f19350505050158015611947573d6000803e3d6000fd5b506119538683856122e7565b5b5050506116e8565b61199c6040518060400160405280601381526020017f596f75207370656e74202564206f6e20257321000000000000000000000000008152508385612248565b505050565b6000600a54905090565b60046020528060005260406000206000915090505481565b6000600760008473ffffffffffffffffffffffffffffffffffffffff1673ffffffffffffffffffffffffffffffffffffffff1681526020019081526020016000208281548110611a1657611a15612ab7565b5b906000526020600020906002020160010154905092915050565b6000600360008373ffffffffffffffffffffffffffffffffffffffff1673ffffffffffffffffffffffffffffffffffffffff168152602001908152602001600020549050919050565b6000600c8281548110611a8f57611a8e612ab7565b5b9060005260206000200160009054906101000a900473ffffffffffffffffffffffffffffffffffffffff169050919050565b60036020528060005260406000206000915090505481565b6009548110611b1d576040517f08c379a0000000000000000000000000000000000000000000000000000000008152600401611b1490612ca0565b60405180910390fd5b60005b81811015611d90576000600c6001600c80549050611b3e9190612cc0565b81548110611b4f57611b4e612ab7565b5b9060005260206000200160009054906101000a900473ffffffffffffffffffffffffffffffffffffffff169050600c805480611b8e57611b8d612cf4565b5b6001900381819060005260206000200160006101000a81549073ffffffffffffffffffffffffffffffffffffffff021916905590556000600360008373ffffffffffffffffffffffffffffffffffffffff1673ffffffffffffffffffffffffffffffffffffffff16815260200190815260200160002054905060008385611c159190612cc0565b905080821115611d07578084611c2b9190612bfe565b9350600c839080600181540180825580915050600190039060005260206000200160009091909190916101000a81548173ffffffffffffffffffffffffffffffffffffffff021916908373ffffffffffffffffffffffffffffffffffffffff16021790555060008054906101000a900473ffffffffffffffffffffffffffffffffffffffff1673ffffffffffffffffffffffffffffffffffffffff166108fc829081150290604051600060405180830381858888f19350505050158015611cf6573d6000803e3d6000fd5b50611d02868285612442565b611d88565b8184611d139190612bfe565b935060008054906101000a900473ffffffffffffffffffffffffffffffffffffffff1673ffffffffffffffffffffffffffffffffffffffff166108fc839081150290604051600060405180830381858888f19350505050158015611d7b573d6000803e3d6000fd5b50611d87868385612442565b5b505050611b20565b611dd06040518060400160405280601381526020017f596f75207370656e74202564206f6e20257321000000000000000000000000008152508385612248565b505050565b6000600660008373ffffffffffffffffffffffffffffffffffffffff1673ffffffffffffffffffffffffffffffffffffffff168152602001908152602001600020805490509050919050565b6000600954905090565b6000600b54905090565b7f144b533d556be80bda7c5cb4a1717ed31d063cedea86db1cb5db0fd157bf5d4f3334604051611e66929190612df7565b60405180910390a16000600560003373ffffffffffffffffffffffffffffffffffffffff1673ffffffffffffffffffffffffffffffffffffffff168152602001908152602001600020541415611f1a57600e339080600181540180825580915050600190039060005260206000200160009091909190916101000a81548173ffffffffffffffffffffffffffffffffffffffff021916908373ffffffffffffffffffffffffffffffffffffffff1602179055505b34600b6000828254611f2c9190612bfe565b9250508190555034600560003373ffffffffffffffffffffffffffffffffffffffff1673ffffffffffffffffffffffffffffffffffffffff1681526020019081526020016000206000828254611f829190612bfe565b92505081905550565b60086020528160005260406000208181548110611fa757600080fd5b906000526020600020906002020160009150915050806000018054611fcb90612b15565b80601f0160208091040260200160405190810160405280929190818152602001828054611ff790612b15565b80156120445780601f1061201957610100808354040283529160200191612044565b820191906000526020600020905b81548152906001019060200180831161202757829003601f168201915b5050505050908060010154905082565b6120ea816040516024016120689190612871565b6040516020818303038152906040527f41304fac000000000000000000000000000000000000000000000000000000007bffffffffffffffffffffffffffffffffffffffffffffffffffffffff19166020820180517bffffffffffffffffffffffffffffffffffffffffffffffffffffffff838183161783525050505061259d565b50565b7f1c1e8ed4f4e7955f05b6c9ebd18dc0c61fb793067eb46cea06d97da59db9d0d483838360405161212093929190612e33565b60405180910390a160006040518060400160405280858152602001848152509050600760008373ffffffffffffffffffffffffffffffffffffffff1673ffffffffffffffffffffffffffffffffffffffff16815260200190815260200160002081908060018154018082558091505060019003906000526020600020906002020160009091909190915060008201518160000190805190602001906121c69291906125c6565b5060208201518160010155505082600a60008282546121e59190612cc0565b9250508190555082600460008473ffffffffffffffffffffffffffffffffffffffff1673ffffffffffffffffffffffffffffffffffffffff168152602001908152602001600020600082825461223b9190612cc0565b9250508190555050505050565b6122e283838360405160240161226093929190612e84565b6040516020818303038152906040527f5970e089000000000000000000000000000000000000000000000000000000007bffffffffffffffffffffffffffffffffffffffffffffffffffffffff19166020820180517bffffffffffffffffffffffffffffffffffffffffffffffffffffffff838183161783525050505061259d565b505050565b7f1c1e8ed4f4e7955f05b6c9ebd18dc0c61fb793067eb46cea06d97da59db9d0d483838360405161231a93929190612ec9565b60405180910390a160006040518060400160405280858152602001848152509050600860008373ffffffffffffffffffffffffffffffffffffffff1673ffffffffffffffffffffffffffffffffffffffff16815260200190815260200160002081908060018154018082558091505060019003906000526020600020906002020160009091909190915060008201518160000190805190602001906123c09291906125c6565b5060208201518160010155505082600b60008282546123df9190612cc0565b9250508190555082600560008473ffffffffffffffffffffffffffffffffffffffff1673ffffffffffffffffffffffffffffffffffffffff16815260200190815260200160002060008282546124359190612cc0565b9250508190555050505050565b7f1c1e8ed4f4e7955f05b6c9ebd18dc0c61fb793067eb46cea06d97da59db9d0d483838360405161247593929190612f66565b60405180910390a160006040518060400160405280858152602001848152509050600660008373ffffffffffffffffffffffffffffffffffffffff1673ffffffffffffffffffffffffffffffffffffffff168152602001908152602001600020819080600181540180825580915050600190039060005260206000209060020201600090919091909150600082015181600001908051906020019061251b9291906125c6565b50602082015181600101555050826009600082825461253a9190612cc0565b9250508190555082600360008473ffffffffffffffffffffffffffffffffffffffff1673ffffffffffffffffffffffffffffffffffffffff16815260200190815260200160002060008282546125909190612cc0565b9250508190555050505050565b60008151905060006a636f6e736f6c652e6c6f679050602083016000808483855afa5050505050565b8280546125d290612b15565b90600052602060002090601f0160209004810192826125f4576000855561263b565b82601f1061260d57805160ff191683800117855561263b565b8280016001018555821561263b579182015b8281111561263a57825182559160200191906001019061261f565b5b509050612648919061264c565b5090565b5b8082111561266557600081600090555060010161264d565b5090565b6000604051905090565b600080fd5b600080fd5b600073ffffffffffffffffffffffffffffffffffffffff82169050919050565b60006126a88261267d565b9050919050565b6126b88161269d565b81146126c357600080fd5b50565b6000813590506126d5816126af565b92915050565b6000819050919050565b6126ee816126db565b81146126f957600080fd5b50565b60008135905061270b816126e5565b92915050565b6000806040838503121561272857612727612673565b5b6000612736858286016126c6565b9250506020612747858286016126fc565b9150509250929050565b61275a816126db565b82525050565b60006020820190506127756000830184612751565b92915050565b600081519050919050565b600082825260208201905092915050565b60005b838110156127b557808201518184015260208101905061279a565b838111156127c4576000848401525b50505050565b6000601f19601f8301169050919050565b60006127e68261277b565b6127f08185612786565b9350612800818560208601612797565b612809816127ca565b840191505092915050565b6000604082019050818103600083015261282e81856127db565b905061283d6020830184612751565b9392505050565b60006020828403121561285a57612859612673565b5b6000612868848285016126c6565b91505092915050565b6000602082019050818103600083015261288b81846127db565b905092915050565b600080fd5b600080fd5b7f4e487b7100000000000000000000000000000000000000000000000000000000600052604160045260246000fd5b6128d5826127ca565b810181811067ffffffffffffffff821117156128f4576128f361289d565b5b80604052505050565b6000612907612669565b905061291382826128cc565b919050565b600067ffffffffffffffff8211156129335761293261289d565b5b61293c826127ca565b9050602081019050919050565b82818337600083830152505050565b600061296b61296684612918565b6128fd565b90508281526020810184848401111561298757612986612898565b5b612992848285612949565b509392505050565b600082601f8301126129af576129ae612893565b5b81356129bf848260208601612958565b91505092915050565b600080604083850312156129df576129de612673565b5b600083013567ffffffffffffffff8111156129fd576129fc612678565b5b612a098582860161299a565b9250506020612a1a858286016126fc565b9150509250929050565b6000612a2f8261267d565b9050919050565b612a3f81612a24565b82525050565b6000602082019050612a5a6000830184612a36565b92915050565b600060208284031215612a7657612a75612673565b5b6000612a84848285016126fc565b91505092915050565b612a968161269d565b82525050565b6000602082019050612ab16000830184612a8d565b92915050565b7f4e487b7100000000000000000000000000000000000000000000000000000000600052603260045260246000fd5b7f4e487b7100000000000000000000000000000000000000000000000000000000600052602260045260246000fd5b60006002820490506001821680612b2d57607f821691505b60208210811415612b4157612b40612ae6565b5b50919050565b7f556b7261696e6500000000000000000000000000000000000000000000000000600082015250565b6000612b7d600783612786565b9150612b8882612b47565b602082019050919050565b6000606082019050612ba86000830185612a8d565b612bb56020830184612751565b8181036040830152612bc681612b70565b90509392505050565b7f4e487b7100000000000000000000000000000000000000000000000000000000600052601160045260246000fd5b6000612c09826126db565b9150612c14836126db565b9250827fffffffffffffffffffffffffffffffffffffffffffffffffffffffffffffffff03821115612c4957612c48612bcf565b5b828201905092915050565b7f4e6f7420656e6f7567682066756e647321000000000000000000000000000000600082015250565b6000612c8a601183612786565b9150612c9582612c54565b602082019050919050565b60006020820190508181036000830152612cb981612c7d565b9050919050565b6000612ccb826126db565b9150612cd6836126db565b925082821015612ce957612ce8612bcf565b5b828203905092915050565b7f4e487b7100000000000000000000000000000000000000000000000000000000600052603160045260246000fd5b7f4769726c204368696c6400000000000000000000000000000000000000000000600082015250565b6000612d59600a83612786565b9150612d6482612d23565b602082019050919050565b6000606082019050612d846000830185612a8d565b612d916020830184612751565b8181036040830152612da281612d4c565b90509392505050565b7f456475636174696f6e0000000000000000000000000000000000000000000000600082015250565b6000612de1600983612786565b9150612dec82612dab565b602082019050919050565b6000606082019050612e0c6000830185612a8d565b612e196020830184612751565b8181036040830152612e2a81612dd4565b90509392505050565b60006080820190508181036000830152612e4d81866127db565b9050612e5c6020830185612751565b612e696040830184612a8d565b8181036060830152612e7a81612b70565b9050949350505050565b60006060820190508181036000830152612e9e81866127db565b9050612ead6020830185612751565b8181036040830152612ebf81846127db565b9050949350505050565b60006080820190508181036000830152612ee381866127db565b9050612ef26020830185612751565b612eff6040830184612a8d565b8181036060830152612f1081612dd4565b9050949350505050565b7f4769726c4368696c640000000000000000000000000000000000000000000000600082015250565b6000612f50600983612786565b9150612f5b82612f1a565b602082019050919050565b60006080820190508181036000830152612f8081866127db565b9050612f8f6020830185612751565b612f9c6040830184612a8d565b8181036060830152612fad81612f43565b905094935050505056fea26469706673582212200f2f7b0c8c3a371526d2aa4d15a36c7b88f7cdd0734c549f81d9b1d7d0b035b464736f6c634300080c0033",
  "linkReferences": {},
  "deployedLinkReferences": {}
}