{
  "_format": "hh-sol-artifact-1",
  "contractName": "AlienPoll",
  "sourceName": "contracts/AlienPoll.sol",
  "abi": [
    {
      "inputs": [],
      "stateMutability": "payable",
      "type": "constructor"
    },
    {
      "anonymous": false,
      "inputs": [
        {
          "indexed": true,
          "internalType": "address",
          "name": "from",
          "type": "address"
        },
        {
          "indexed": false,
          "internalType": "uint256",
          "name": "timestamp",
          "type": "uint256"
        },
        {
          "indexed": false,
          "internalType": "string",
          "name": "message",
          "type": "string"
        },
        {
          "indexed": false,
          "internalType": "string",
          "name": "X",
          "type": "string"
        }
      ],
      "name": "VoteMessage",
      "type": "event"
    },
    {
      "inputs": [],
      "name": "bonus",
      "outputs": [],
      "stateMutability": "nonpayable",
      "type": "function"
    },
    {
      "inputs": [
        {
          "internalType": "string",
          "name": "_message",
          "type": "string"
        }
      ],
      "name": "faceInc",
      "outputs": [],
      "stateMutability": "nonpayable",
      "type": "function"
    },
    {
      "inputs": [],
      "name": "getAllMess",
      "outputs": [
        {
          "components": [
            {
              "internalType": "address",
              "name": "waver",
              "type": "address"
            },
            {
              "internalType": "string",
              "name": "message",
              "type": "string"
            },
            {
              "internalType": "uint256",
              "name": "timestamp",
              "type": "uint256"
            },
            {
              "internalType": "string",
              "name": "who",
              "type": "string"
            }
          ],
          "internalType": "struct AlienPoll.Mess[]",
          "name": "",
          "type": "tuple[]"
        }
      ],
      "stateMutability": "view",
      "type": "function"
    },
    {
      "inputs": [],
      "name": "getFaceCount",
      "outputs": [
        {
          "internalType": "uint256",
          "name": "",
          "type": "uint256"
        }
      ],
      "stateMutability": "view",
      "type": "function"
    },
    {
      "inputs": [],
      "name": "getTotalWaves",
      "outputs": [
        {
          "internalType": "uint256",
          "name": "",
          "type": "uint256"
        }
      ],
      "stateMutability": "view",
      "type": "function"
    },
    {
      "inputs": [
        {
          "internalType": "address",
          "name": "",
          "type": "address"
        }
      ],
      "name": "lastWavedAt",
      "outputs": [
        {
          "internalType": "uint256",
          "name": "",
          "type": "uint256"
        }
      ],
      "stateMutability": "view",
      "type": "function"
    },
    {
      "inputs": [
        {
          "internalType": "string",
          "name": "_message",
          "type": "string"
        }
      ],
      "name": "shipInc",
      "outputs": [],
      "stateMutability": "nonpayable",
      "type": "function"
    }
  ],
  "bytecode": "0x608060405262000033604051806060016040528060238152602001620019a7602391396200005b60201b62000a8b1760201c565b60644442620000439190620001a8565b6200004f919062000245565b600381905550620002ec565b620000fb8160405160240162000072919062000168565b6040516020818303038152906040527f41304fac000000000000000000000000000000000000000000000000000000007bffffffffffffffffffffffffffffffffffffffffffffffffffffffff19166020820180517bffffffffffffffffffffffffffffffffffffffffffffffffffffffff8381831617835250505050620000fe60201b60201c565b50565b60008151905060006a636f6e736f6c652e6c6f679050602083016000808483855afa5050505050565b600062000134826200018c565b62000140818562000197565b9350620001528185602086016200020f565b6200015d81620002db565b840191505092915050565b6000602082019050818103600083015262000184818462000127565b905092915050565b600081519050919050565b600082825260208201905092915050565b6000620001b58262000205565b9150620001c28362000205565b9250827fffffffffffffffffffffffffffffffffffffffffffffffffffffffffffffffff03821115620001fa57620001f96200027d565b5b828201905092915050565b6000819050919050565b60005b838110156200022f57808201518184015260208101905062000212565b838111156200023f576000848401525b50505050565b6000620002528262000205565b91506200025f8362000205565b925082620002725762000271620002ac565b5b828206905092915050565b7f4e487b7100000000000000000000000000000000000000000000000000000000600052601160045260246000fd5b7f4e487b7100000000000000000000000000000000000000000000000000000000600052601260045260246000fd5b6000601f19601f8301169050919050565b6116ab80620002fc6000396000f3fe608060405234801561001057600080fd5b506004361061007d5760003560e01c80639a2cdc081161005b5780639a2cdc08146100c6578063a42a4663146100e4578063a51897ee14610114578063c1c22c7f146101305761007d565b806369e18f931461008257806375b4d78c1461009e5780637e9a60bf146100a8575b600080fd5b61009c60048036038101906100979190610dce565b61014e565b005b6100a66103eb565b005b6100b061055e565b6040516100bd9190611295565b60405180910390f35b6100ce6105a9565b6040516100db9190611295565b60405180910390f35b6100fe60048036038101906100f99190610da5565b6105f4565b60405161010b9190611295565b60405180910390f35b61012e60048036038101906101299190610dce565b61060c565b005b6101386108a8565b6040516101459190611191565b60405180910390f35b426078600560003373ffffffffffffffffffffffffffffffffffffffff1673ffffffffffffffffffffffffffffffffffffffff1681526020019081526020016000205461019b9190611408565b106101db576040517f08c379a00000000000000000000000000000000000000000000000000000000081526004016101d290611235565b60405180910390fd5b42600560003373ffffffffffffffffffffffffffffffffffffffff1673ffffffffffffffffffffffffffffffffffffffff168152602001908152602001600020819055506001600260008282546102329190611408565b92505081905550600160008082825461024b9190611408565b925050819055506102746040518060600160405280602981526020016116246029913933610b24565b600460405180608001604052803373ffffffffffffffffffffffffffffffffffffffff1681526020018381526020014281526020016040518060400160405280600a81526020017f416c69656e207368697000000000000000000000000000000000000000000000815250815250908060018154018082558091505060019003906000526020600020906004020160009091909190915060008201518160000160006101000a81548173ffffffffffffffffffffffffffffffffffffffff021916908373ffffffffffffffffffffffffffffffffffffffff160217905550602082015181600101908051906020019061036e929190610c85565b50604082015181600201556060820151816003019080519060200190610395929190610c85565b5050503373ffffffffffffffffffffffffffffffffffffffff167f860cf708c2b415ec3f49accc443e84e9e2d419e4ddcdb8feb16df90746256db942836040516103e09291906112f3565b60405180910390a250565b606460035442446103fc9190611408565b6104069190611408565b610410919061150e565b60038190555060326003541161055c5761045f6040518060400160405280600781526020017f257320776f6e210000000000000000000000000000000000000000000000000081525033610b24565b6000655af3107a40009050478111156104ad576040517f08c379a00000000000000000000000000000000000000000000000000000000081526004016104a490611255565b60405180910390fd5b60003373ffffffffffffffffffffffffffffffffffffffff16826040516104d39061117c565b60006040518083038185875af1925050503d8060008114610510576040519150601f19603f3d011682016040523d82523d6000602084013e610515565b606091505b5050905080610559576040517f08c379a000000000000000000000000000000000000000000000000000000000815260040161055090611275565b60405180910390fd5b50505b565b60006105a16040518060400160405280601d81526020017f256420656e74697469657320686176652063686f73656e206661636521000000815250600154610bc0565b600154905090565b60006105ec6040518060400160405280601d81526020017f256420656e7469746965732068617665207761766564206174206d6521000000815250600054610bc0565b600054905090565b60056020528060005260406000206000915090505481565b426078600560003373ffffffffffffffffffffffffffffffffffffffff1673ffffffffffffffffffffffffffffffffffffffff168152602001908152602001600020546106599190611408565b10610699576040517f08c379a000000000000000000000000000000000000000000000000000000000815260040161069090611235565b60405180910390fd5b42600560003373ffffffffffffffffffffffffffffffffffffffff1673ffffffffffffffffffffffffffffffffffffffff1681526020019081526020016000208190555060018060008282546106ef9190611408565b9250508190555060016000808282546107089190611408565b9250508190555061073160405180606001604052806029815260200161164d6029913933610b24565b600460405180608001604052803373ffffffffffffffffffffffffffffffffffffffff1681526020018381526020014281526020016040518060400160405280600a81526020017f416c69656e206661636500000000000000000000000000000000000000000000815250815250908060018154018082558091505060019003906000526020600020906004020160009091909190915060008201518160000160006101000a81548173ffffffffffffffffffffffffffffffffffffffff021916908373ffffffffffffffffffffffffffffffffffffffff160217905550602082015181600101908051906020019061082b929190610c85565b50604082015181600201556060820151816003019080519060200190610852929190610c85565b5050503373ffffffffffffffffffffffffffffffffffffffff167f860cf708c2b415ec3f49accc443e84e9e2d419e4ddcdb8feb16df90746256db9428360405161089d9291906112b0565b60405180910390a250565b60606004805480602002602001604051908101604052809291908181526020016000905b82821015610a8257838290600052602060002090600402016040518060800160405290816000820160009054906101000a900473ffffffffffffffffffffffffffffffffffffffff1673ffffffffffffffffffffffffffffffffffffffff1673ffffffffffffffffffffffffffffffffffffffff168152602001600182018054610955906114dc565b80601f0160208091040260200160405190810160405280929190818152602001828054610981906114dc565b80156109ce5780601f106109a3576101008083540402835291602001916109ce565b820191906000526020600020905b8154815290600101906020018083116109b157829003601f168201915b50505050508152602001600282015481526020016003820180546109f1906114dc565b80601f0160208091040260200160405190810160405280929190818152602001828054610a1d906114dc565b8015610a6a5780601f10610a3f57610100808354040283529160200191610a6a565b820191906000526020600020905b815481529060010190602001808311610a4d57829003601f168201915b505050505081525050815260200190600101906108cc565b50505050905090565b610b2181604051602401610a9f91906111b3565b6040516020818303038152906040527f41304fac000000000000000000000000000000000000000000000000000000007bffffffffffffffffffffffffffffffffffffffffffffffffffffffff19166020820180517bffffffffffffffffffffffffffffffffffffffffffffffffffffffff8381831617835250505050610c5c565b50565b610bbc8282604051602401610b3a9291906111d5565b6040516020818303038152906040527f319af333000000000000000000000000000000000000000000000000000000007bffffffffffffffffffffffffffffffffffffffffffffffffffffffff19166020820180517bffffffffffffffffffffffffffffffffffffffffffffffffffffffff8381831617835250505050610c5c565b5050565b610c588282604051602401610bd6929190611205565b6040516020818303038152906040527f9710a9d0000000000000000000000000000000000000000000000000000000007bffffffffffffffffffffffffffffffffffffffffffffffffffffffff19166020820180517bffffffffffffffffffffffffffffffffffffffffffffffffffffffff8381831617835250505050610c5c565b5050565b60008151905060006a636f6e736f6c652e6c6f679050602083016000808483855afa5050505050565b828054610c91906114dc565b90600052602060002090601f016020900481019282610cb35760008555610cfa565b82601f10610ccc57805160ff1916838001178555610cfa565b82800160010185558215610cfa579182015b82811115610cf9578251825591602001919060010190610cde565b5b509050610d079190610d0b565b5090565b5b80821115610d24576000816000905550600101610d0c565b5090565b6000610d3b610d3684611367565b611336565b905082815260208101848484011115610d5357600080fd5b610d5e84828561149a565b509392505050565b600081359050610d758161160c565b92915050565b600082601f830112610d8c57600080fd5b8135610d9c848260208601610d28565b91505092915050565b600060208284031215610db757600080fd5b6000610dc584828501610d66565b91505092915050565b600060208284031215610de057600080fd5b600082013567ffffffffffffffff811115610dfa57600080fd5b610e0684828501610d7b565b91505092915050565b6000610e1b83836110f4565b905092915050565b610e2c8161145e565b82525050565b610e3b8161145e565b82525050565b6000610e4c826113a7565b610e5681856113ca565b935083602082028501610e6885611397565b8060005b85811015610ea45784840389528151610e858582610e0f565b9450610e90836113bd565b925060208a01995050600181019050610e6c565b50829750879550505050505092915050565b6000610ec1826113b2565b610ecb81856113e6565b9350610edb8185602086016114a9565b610ee4816115fb565b840191505092915050565b6000610efa826113b2565b610f0481856113f7565b9350610f148185602086016114a9565b610f1d816115fb565b840191505092915050565b6000610f35600a836113f7565b91507f416c69656e2066616365000000000000000000000000000000000000000000006000830152602082019050919050565b6000610f756025836113f7565b91507f4d75737420776169742032206d696e73206265666f726520766f74696e67206160008301527f6761696e2e0000000000000000000000000000000000000000000000000000006020830152604082019050919050565b6000610fdb6034836113f7565b91507f547279696e6720746f207769746864726177206d6f7265206d6f6e657920746860008301527f616e2074686520636f6e7472616374206861732e0000000000000000000000006020830152604082019050919050565b60006110416027836113f7565b91507f4661696c656420746f207769746864726177206d6f6e65792066726f6d20636f60008301527f6e74726163742e000000000000000000000000000000000000000000000000006020830152604082019050919050565b60006110a76000836113db565b9150600082019050919050565b60006110c1600a836113f7565b91507f416c69656e2073686970000000000000000000000000000000000000000000006000830152602082019050919050565b600060808301600083015161110c6000860182610e23565b50602083015184820360208601526111248282610eb6565b9150506040830151611139604086018261115e565b50606083015184820360608601526111518282610eb6565b9150508091505092915050565b61116781611490565b82525050565b61117681611490565b82525050565b60006111878261109a565b9150819050919050565b600060208201905081810360008301526111ab8184610e41565b905092915050565b600060208201905081810360008301526111cd8184610eef565b905092915050565b600060408201905081810360008301526111ef8185610eef565b90506111fe6020830184610e32565b9392505050565b6000604082019050818103600083015261121f8185610eef565b905061122e602083018461116d565b9392505050565b6000602082019050818103600083015261124e81610f68565b9050919050565b6000602082019050818103600083015261126e81610fce565b9050919050565b6000602082019050818103600083015261128e81611034565b9050919050565b60006020820190506112aa600083018461116d565b92915050565b60006060820190506112c5600083018561116d565b81810360208301526112d78184610eef565b905081810360408301526112ea81610f28565b90509392505050565b6000606082019050611308600083018561116d565b818103602083015261131a8184610eef565b9050818103604083015261132d816110b4565b90509392505050565b6000604051905081810181811067ffffffffffffffff8211171561135d5761135c6115cc565b5b8060405250919050565b600067ffffffffffffffff821115611382576113816115cc565b5b601f19601f8301169050602081019050919050565b6000819050602082019050919050565b600081519050919050565b600081519050919050565b6000602082019050919050565b600082825260208201905092915050565b600081905092915050565b600082825260208201905092915050565b600082825260208201905092915050565b600061141382611490565b915061141e83611490565b9250827fffffffffffffffffffffffffffffffffffffffffffffffffffffffffffffffff038211156114535761145261153f565b5b828201905092915050565b600061146982611470565b9050919050565b600073ffffffffffffffffffffffffffffffffffffffff82169050919050565b6000819050919050565b82818337600083830152505050565b60005b838110156114c75780820151818401526020810190506114ac565b838111156114d6576000848401525b50505050565b600060028204905060018216806114f457607f821691505b602082108114156115085761150761159d565b5b50919050565b600061151982611490565b915061152483611490565b9250826115345761153361156e565b5b828206905092915050565b7f4e487b7100000000000000000000000000000000000000000000000000000000600052601160045260246000fd5b7f4e487b7100000000000000000000000000000000000000000000000000000000600052601260045260246000fd5b7f4e487b7100000000000000000000000000000000000000000000000000000000600052602260045260246000fd5b7f4e487b7100000000000000000000000000000000000000000000000000000000600052604160045260246000fd5b6000601f19601f8301169050919050565b6116158161145e565b811461162057600080fd5b5056fe0a416c69656e207368697020616c6c20746865207761792120257320697320736869702067616e67210a416c69656e206661636520616c6c20746865207761792120257320697320666163652067616e6721a2646970667358221220df27ea82f0c9c8aa5c4dc5955d230abb7dfb9b5b61526db60b06d6176034cd8d64736f6c6343000800003341796f212074686973206973206d7920736d61727420636f6e7472616374207e7e7e7e",
  "linkReferences": {},
  "deployedLinkReferences": {}
}